{
  "contractName": "TimeLockedWallet",
  "abi": [
    {
      "inputs": [
        {
          "internalType": "address",
          "name": "_creator",
          "type": "address"
        },
        {
          "internalType": "address",
          "name": "_owner",
          "type": "address"
        },
        {
          "internalType": "uint256",
          "name": "_unlockDate",
          "type": "uint256"
        }
      ],
      "stateMutability": "nonpayable",
      "type": "constructor"
    },
    {
      "anonymous": false,
      "inputs": [
        {
          "indexed": false,
          "internalType": "address",
          "name": "from",
          "type": "address"
        },
        {
          "indexed": false,
          "internalType": "uint256",
          "name": "amount",
          "type": "uint256"
        }
      ],
      "name": "Received",
      "type": "event"
    },
    {
      "anonymous": false,
      "inputs": [
        {
          "indexed": false,
          "internalType": "address",
          "name": "to",
          "type": "address"
        },
        {
          "indexed": false,
          "internalType": "uint256",
          "name": "amount",
          "type": "uint256"
        }
      ],
      "name": "Withdrew",
      "type": "event"
    },
    {
      "anonymous": false,
      "inputs": [
        {
          "indexed": false,
          "internalType": "address",
          "name": "tokenContract",
          "type": "address"
        },
        {
          "indexed": false,
          "internalType": "address",
          "name": "to",
          "type": "address"
        },
        {
          "indexed": false,
          "internalType": "uint256",
          "name": "amount",
          "type": "uint256"
        }
      ],
      "name": "WithdrewTokens",
      "type": "event"
    },
    {
      "inputs": [],
      "name": "createdAt",
      "outputs": [
        {
          "internalType": "uint256",
          "name": "",
          "type": "uint256"
        }
      ],
      "stateMutability": "view",
      "type": "function"
    },
    {
      "inputs": [],
      "name": "creator",
      "outputs": [
        {
          "internalType": "address",
          "name": "",
          "type": "address"
        }
      ],
      "stateMutability": "view",
      "type": "function"
    },
    {
      "inputs": [],
      "name": "owner",
      "outputs": [
        {
          "internalType": "address",
          "name": "",
          "type": "address"
        }
      ],
      "stateMutability": "view",
      "type": "function"
    },
    {
      "inputs": [],
      "name": "unlockDate",
      "outputs": [
        {
          "internalType": "uint256",
          "name": "",
          "type": "uint256"
        }
      ],
      "stateMutability": "view",
      "type": "function"
    },
    {
      "stateMutability": "payable",
      "type": "receive"
    },
    {
      "inputs": [],
      "name": "withdraw",
      "outputs": [],
      "stateMutability": "nonpayable",
      "type": "function"
    },
    {
      "inputs": [
        {
          "internalType": "address",
          "name": "_tokenContract",
          "type": "address"
        }
      ],
      "name": "withdrawTokens",
      "outputs": [],
      "stateMutability": "nonpayable",
      "type": "function"
    },
    {
      "inputs": [],
      "name": "info",
      "outputs": [
        {
          "internalType": "address",
          "name": "",
          "type": "address"
        },
        {
          "internalType": "address",
          "name": "",
          "type": "address"
        },
        {
          "internalType": "uint256",
          "name": "",
          "type": "uint256"
        },
        {
          "internalType": "uint256",
          "name": "",
          "type": "uint256"
        },
        {
          "internalType": "uint256",
          "name": "",
          "type": "uint256"
        }
      ],
      "stateMutability": "view",
      "type": "function"
    }
  ],
  "bytecode": "0x608060405234801561001057600080fd5b506040516109be3803806109be833981810160405281019061003291906100f3565b826000806101000a81548173ffffffffffffffffffffffffffffffffffffffff021916908373ffffffffffffffffffffffffffffffffffffffff16021790555081600160006101000a81548173ffffffffffffffffffffffffffffffffffffffff021916908373ffffffffffffffffffffffffffffffffffffffff16021790555080600281905550426003819055505050506101b5565b6000815190506100d881610187565b92915050565b6000815190506100ed8161019e565b92915050565b60008060006060848603121561010c5761010b610182565b5b600061011a868287016100c9565b935050602061012b868287016100c9565b925050604061013c868287016100de565b9150509250925092565b600061015182610158565b9050919050565b600073ffffffffffffffffffffffffffffffffffffffff82169050919050565b6000819050919050565b600080fd5b61019081610146565b811461019b57600080fd5b50565b6101a781610178565b81146101b257600080fd5b50565b6107fa806101c46000396000f3fe6080604052600436106100745760003560e01c806349df728c1161004e57806349df728c1461012a57806369ac5721146101535780638da5cb5b1461017e578063cf09e0d0146101a9576100b4565b806302d05d3f146100b9578063370158ea146100e45780633ccfd60b14610113576100b4565b366100b4577f88a5966d370b9919b20f3e2c13ff65706f196a4e32cc2c12bf57088f8852587433346040516100aa9291906106ee565b60405180910390a1005b600080fd5b3480156100c557600080fd5b506100ce6101d4565b6040516100db9190610649565b60405180910390f35b3480156100f057600080fd5b506100f96101f8565b60405161010a95949392919061069b565b60405180910390f35b34801561011f57600080fd5b5061012861025d565b005b34801561013657600080fd5b50610151600480360381019061014c91906105a4565b610348565b005b34801561015f57600080fd5b50610168610533565b6040516101759190610717565b60405180910390f35b34801561018a57600080fd5b50610193610539565b6040516101a09190610649565b60405180910390f35b3480156101b557600080fd5b506101be61055f565b6040516101cb9190610717565b60405180910390f35b60008054906101000a900473ffffffffffffffffffffffffffffffffffffffff1681565b60008060008060008060009054906101000a900473ffffffffffffffffffffffffffffffffffffffff16600160009054906101000a900473ffffffffffffffffffffffffffffffffffffffff1660025460035447945094509450945094509091929394565b600160009054906101000a900473ffffffffffffffffffffffffffffffffffffffff1673ffffffffffffffffffffffffffffffffffffffff163373ffffffffffffffffffffffffffffffffffffffff16146102b757600080fd5b6002544210156102c657600080fd5b3373ffffffffffffffffffffffffffffffffffffffff166108fc479081150290604051600060405180830381858888f1935050505015801561030c573d6000803e3d6000fd5b507fb244b9a17ad633c6e83b7983ee04320484956a68ddbe96a0b70dfca1cf19d723334760405161033e9291906106ee565b60405180910390a1565b600160009054906101000a900473ffffffffffffffffffffffffffffffffffffffff1673ffffffffffffffffffffffffffffffffffffffff163373ffffffffffffffffffffffffffffffffffffffff16146103a257600080fd5b6002544210156103b157600080fd5b600081905060008173ffffffffffffffffffffffffffffffffffffffff166370a08231306040518263ffffffff1660e01b81526004016103f19190610649565b60206040518083038186803b15801561040957600080fd5b505afa15801561041d573d6000803e3d6000fd5b505050506040513d601f19601f8201168201806040525081019061044191906105fe565b90508173ffffffffffffffffffffffffffffffffffffffff1663a9059cbb600160009054906101000a900473ffffffffffffffffffffffffffffffffffffffff16836040518363ffffffff1660e01b81526004016104a09291906106ee565b602060405180830381600087803b1580156104ba57600080fd5b505af11580156104ce573d6000803e3d6000fd5b505050506040513d601f19601f820116820180604052508101906104f291906105d1565b507fa04c965e7d289704527a948915777d68bb4530fb4b08aa935fb958c0b7901ab983338360405161052693929190610664565b60405180910390a1505050565b60025481565b600160009054906101000a900473ffffffffffffffffffffffffffffffffffffffff1681565b60035481565b6000813590506105748161077f565b92915050565b60008151905061058981610796565b92915050565b60008151905061059e816107ad565b92915050565b6000602082840312156105ba576105b961077a565b5b60006105c884828501610565565b91505092915050565b6000602082840312156105e7576105e661077a565b5b60006105f58482850161057a565b91505092915050565b6000602082840312156106145761061361077a565b5b60006106228482850161058f565b91505092915050565b61063481610732565b82525050565b61064381610770565b82525050565b600060208201905061065e600083018461062b565b92915050565b6000606082019050610679600083018661062b565b610686602083018561062b565b610693604083018461063a565b949350505050565b600060a0820190506106b0600083018861062b565b6106bd602083018761062b565b6106ca604083018661063a565b6106d7606083018561063a565b6106e4608083018461063a565b9695505050505050565b6000604082019050610703600083018561062b565b610710602083018461063a565b9392505050565b600060208201905061072c600083018461063a565b92915050565b600061073d82610750565b9050919050565b60008115159050919050565b600073ffffffffffffffffffffffffffffffffffffffff82169050919050565b6000819050919050565b600080fd5b61078881610732565b811461079357600080fd5b50565b61079f81610744565b81146107aa57600080fd5b50565b6107b681610770565b81146107c157600080fd5b5056fea264697066735822122065a78d68aadb5104af8af0ae61c0d33980f5a4a239c186a9fe2c72e218e06a4a64736f6c63430008070033",
  "immutableReferences": {},
  "source": "pragma solidity ^0.8.0;\n\nimport \"../node_modules/@openzeppelin/contracts/token/ERC20/ERC20.sol\";\n\ncontract TimeLockedWallet {\n    address public creator;\n    address public owner;\n    uint256 public unlockDate;\n    uint256 public createdAt;\n\n    modifier onlyOwner {\n        require(msg.sender == owner);\n        _;\n    }\n\n    constructor(\n        address _creator,\n        address _owner,\n        uint256 _unlockDate\n    ) public {\n        creator = _creator;\n        owner = _owner;\n        unlockDate = _unlockDate;\n        createdAt = block.timestamp;\n    }\n\n    // keep all the ether sent to this address\n    receive() external payable {\n        emit Received(msg.sender, msg.value);\n    }\n\n    // callable by owner only, after specified time\n    function withdraw() public onlyOwner {\n        require(block.timestamp >= unlockDate);\n        //now send all the balance\n        payable(msg.sender).transfer(address(this).balance);\n        emit Withdrew(msg.sender, address(this).balance);\n    }\n\n    // callable by owner only, after specified time, only for Tokens implementing ERC20\n    function withdrawTokens(address _tokenContract) public onlyOwner {\n        require(block.timestamp >= unlockDate);\n        ERC20 token = ERC20(_tokenContract);\n        //now send all the token balance\n        uint256 tokenBalance = token.balanceOf(address(this));\n        token.transfer(owner, tokenBalance);\n        emit WithdrewTokens(_tokenContract, msg.sender, tokenBalance);\n    }\n\n    function info()\n        public\n        view\n        returns (\n            address,\n            address,\n            uint256,\n            uint256,\n            uint256\n        )\n    {\n        return (creator, owner, unlockDate, createdAt, address(this).balance);\n    }\n\n    event Received(address from, uint256 amount);\n    event Withdrew(address to, uint256 amount);\n    event WithdrewTokens(address tokenContract, address to, uint256 amount);\n}\n",
  "sourcePath": "/home/gm/Documents/work/safulock/contracts/TimeLockedWallet.sol",
  "compiler": {
    "name": "solc",
    "version": "0.8.7+commit.e28d00a7.Emscripten.clang"
  },
  "schemaVersion": "3.4.1",
  "updatedAt": "2021-08-20T21:42:59.870Z",
  "devdoc": {
    "kind": "dev",
    "methods": {},
    "version": 1
  },
  "userdoc": {
    "kind": "user",
    "methods": {},
    "version": 1
  }
}