{
  "contractName": "TimeLockedWalletFactory",
  "abi": [
    {
      "anonymous": false,
      "inputs": [
        {
          "indexed": false,
          "internalType": "address",
          "name": "wallet",
          "type": "address"
        },
        {
          "indexed": false,
          "internalType": "address",
          "name": "from",
          "type": "address"
        },
        {
          "indexed": false,
          "internalType": "address",
          "name": "to",
          "type": "address"
        },
        {
          "indexed": false,
          "internalType": "uint256",
          "name": "createdAt",
          "type": "uint256"
        },
        {
          "indexed": false,
          "internalType": "uint256",
          "name": "unlockDate",
          "type": "uint256"
        },
        {
          "indexed": false,
          "internalType": "uint256",
          "name": "amount",
          "type": "uint256"
        }
      ],
      "name": "Created",
      "type": "event"
    },
    {
      "anonymous": false,
      "inputs": [
        {
          "indexed": true,
          "internalType": "address",
          "name": "previousOwner",
          "type": "address"
        },
        {
          "indexed": true,
          "internalType": "address",
          "name": "newOwner",
          "type": "address"
        }
      ],
      "name": "OwnershipTransferred",
      "type": "event"
    },
    {
      "inputs": [],
      "name": "owner",
      "outputs": [
        {
          "internalType": "address",
          "name": "",
          "type": "address"
        }
      ],
      "stateMutability": "view",
      "type": "function"
    },
    {
      "inputs": [],
      "name": "renounceOwnership",
      "outputs": [],
      "stateMutability": "nonpayable",
      "type": "function"
    },
    {
      "inputs": [
        {
          "internalType": "address",
          "name": "newOwner",
          "type": "address"
        }
      ],
      "name": "transferOwnership",
      "outputs": [],
      "stateMutability": "nonpayable",
      "type": "function"
    },
    {
      "stateMutability": "payable",
      "type": "receive"
    },
    {
      "inputs": [],
      "name": "bnbFee",
      "outputs": [
        {
          "internalType": "uint256",
          "name": "",
          "type": "uint256"
        }
      ],
      "stateMutability": "view",
      "type": "function"
    },
    {
      "inputs": [
        {
          "internalType": "uint256",
          "name": "fee",
          "type": "uint256"
        }
      ],
      "name": "setBnbFee",
      "outputs": [],
      "stateMutability": "nonpayable",
      "type": "function"
    },
    {
      "inputs": [
        {
          "internalType": "address",
          "name": "_user",
          "type": "address"
        }
      ],
      "name": "getWallets",
      "outputs": [
        {
          "internalType": "address[]",
          "name": "",
          "type": "address[]"
        }
      ],
      "stateMutability": "view",
      "type": "function"
    },
    {
      "inputs": [
        {
          "internalType": "address",
          "name": "_owner",
          "type": "address"
        },
        {
          "internalType": "uint256",
          "name": "_unlockDate",
          "type": "uint256"
        }
      ],
      "name": "newTimeLockedWallet",
      "outputs": [
        {
          "internalType": "address",
          "name": "wallet",
          "type": "address"
        }
      ],
      "stateMutability": "payable",
      "type": "function"
    }
  ],
  "bytecode": "0x6080604052600060025534801561001557600080fd5b5061003261002761003760201b60201c565b61003f60201b60201c565b610103565b600033905090565b60008060009054906101000a900473ffffffffffffffffffffffffffffffffffffffff169050816000806101000a81548173ffffffffffffffffffffffffffffffffffffffff021916908373ffffffffffffffffffffffffffffffffffffffff1602179055508173ffffffffffffffffffffffffffffffffffffffff168173ffffffffffffffffffffffffffffffffffffffff167f8be0079c531659141344cd1fd0a4f28419497f9722a3daafe3b4186f6b6457e060405160405180910390a35050565b611745806101126000396000f3fe6080604052600436106200007f5760003560e01c80638a47446c11620000555780638a47446c14620001235780638da5cb5b1462000151578063efc174151462000181578063f2fde38b14620001b1576200008a565b80630a9ef927146200008f578063422c29a414620000c5578063715018a61462000109576200008a565b366200008a57600080fd5b600080fd5b620000ad6004803603810190620000a79190620008dc565b620001df565b604051620000bc919062000a81565b60405180910390f35b348015620000d257600080fd5b50620000f16004803603810190620000eb9190620008aa565b6200047e565b60405162000100919062000b48565b60405180910390f35b3480156200011657600080fd5b50620001216200054d565b005b3480156200013057600080fd5b506200014f600480360381019062000149919062000923565b620005de565b005b3480156200015e57600080fd5b50620001696200066b565b60405162000178919062000a81565b60405180910390f35b3480156200018e57600080fd5b506200019962000694565b604051620001a8919062000bd2565b60405180910390f35b348015620001be57600080fd5b50620001dd6004803603810190620001d79190620008aa565b6200069e565b005b6000620001eb62000694565b34101562000230576040517f08c379a0000000000000000000000000000000000000000000000000000000008152600401620002279062000bb0565b60405180910390fd5b6200023a6200066b565b73ffffffffffffffffffffffffffffffffffffffff166108fc349081150290604051600060405180830381858888f1935050505015801562000280573d6000803e3d6000fd5b5033838360405162000292906200086e565b620002a09392919062000b0b565b604051809103906000f080158015620002bd573d6000803e3d6000fd5b509050600160003373ffffffffffffffffffffffffffffffffffffffff1673ffffffffffffffffffffffffffffffffffffffff168152602001908152602001600020819080600181540180825580915050600190039060005260206000200160009091909190916101000a81548173ffffffffffffffffffffffffffffffffffffffff021916908373ffffffffffffffffffffffffffffffffffffffff1602179055508273ffffffffffffffffffffffffffffffffffffffff163373ffffffffffffffffffffffffffffffffffffffff16146200043557600160008473ffffffffffffffffffffffffffffffffffffffff1673ffffffffffffffffffffffffffffffffffffffff168152602001908152602001600020819080600181540180825580915050600190039060005260206000200160009091909190916101000a81548173ffffffffffffffffffffffffffffffffffffffff021916908373ffffffffffffffffffffffffffffffffffffffff1602179055505b7f14d5db8c1f746c7adcbcd13cf8945dd2ac6ad58be52380b8c4933c876f76e1bf813385428634604051620004709695949392919062000a9e565b60405180910390a192915050565b6060600160008373ffffffffffffffffffffffffffffffffffffffff1673ffffffffffffffffffffffffffffffffffffffff1681526020019081526020016000208054806020026020016040519081016040528092919081815260200182805480156200054157602002820191906000526020600020905b8160009054906101000a900473ffffffffffffffffffffffffffffffffffffffff1673ffffffffffffffffffffffffffffffffffffffff1681526020019060010190808311620004f6575b50505050509050919050565b62000557620007a2565b73ffffffffffffffffffffffffffffffffffffffff16620005776200066b565b73ffffffffffffffffffffffffffffffffffffffff1614620005d0576040517f08c379a0000000000000000000000000000000000000000000000000000000008152600401620005c79062000b8e565b60405180910390fd5b620005dc6000620007aa565b565b620005e8620007a2565b73ffffffffffffffffffffffffffffffffffffffff16620006086200066b565b73ffffffffffffffffffffffffffffffffffffffff161462000661576040517f08c379a0000000000000000000000000000000000000000000000000000000008152600401620006589062000b8e565b60405180910390fd5b8060028190555050565b60008060009054906101000a900473ffffffffffffffffffffffffffffffffffffffff16905090565b6000600254905090565b620006a8620007a2565b73ffffffffffffffffffffffffffffffffffffffff16620006c86200066b565b73ffffffffffffffffffffffffffffffffffffffff161462000721576040517f08c379a0000000000000000000000000000000000000000000000000000000008152600401620007189062000b8e565b60405180910390fd5b600073ffffffffffffffffffffffffffffffffffffffff168173ffffffffffffffffffffffffffffffffffffffff16141562000794576040517f08c379a00000000000000000000000000000000000000000000000000000000081526004016200078b9062000b6c565b60405180910390fd5b6200079f81620007aa565b50565b600033905090565b60008060009054906101000a900473ffffffffffffffffffffffffffffffffffffffff169050816000806101000a81548173ffffffffffffffffffffffffffffffffffffffff021916908373ffffffffffffffffffffffffffffffffffffffff1602179055508173ffffffffffffffffffffffffffffffffffffffff168173ffffffffffffffffffffffffffffffffffffffff167f8be0079c531659141344cd1fd0a4f28419497f9722a3daafe3b4186f6b6457e060405160405180910390a35050565b6109be8062000d5283390190565b6000813590506200088d8162000d1d565b92915050565b600081359050620008a48162000d37565b92915050565b600060208284031215620008c357620008c262000c77565b5b6000620008d3848285016200087c565b91505092915050565b60008060408385031215620008f657620008f562000c77565b5b600062000906858286016200087c565b9250506020620009198582860162000893565b9150509250929050565b6000602082840312156200093c576200093b62000c77565b5b60006200094c8482850162000893565b91505092915050565b60006200096383836200096f565b60208301905092915050565b6200097a8162000c39565b82525050565b6200098b8162000c39565b82525050565b60006200099e8262000bff565b620009aa818562000c17565b9350620009b78362000bef565b8060005b83811015620009ee578151620009d2888262000955565b9750620009df8362000c0a565b925050600181019050620009bb565b5085935050505092915050565b600062000a0a60268362000c28565b915062000a178262000c7c565b604082019050919050565b600062000a3160208362000c28565b915062000a3e8262000ccb565b602082019050919050565b600062000a5860138362000c28565b915062000a658262000cf4565b602082019050919050565b62000a7b8162000c6d565b82525050565b600060208201905062000a98600083018462000980565b92915050565b600060c08201905062000ab5600083018962000980565b62000ac4602083018862000980565b62000ad3604083018762000980565b62000ae2606083018662000a70565b62000af1608083018562000a70565b62000b0060a083018462000a70565b979650505050505050565b600060608201905062000b22600083018662000980565b62000b31602083018562000980565b62000b40604083018462000a70565b949350505050565b6000602082019050818103600083015262000b64818462000991565b905092915050565b6000602082019050818103600083015262000b8781620009fb565b9050919050565b6000602082019050818103600083015262000ba98162000a22565b9050919050565b6000602082019050818103600083015262000bcb8162000a49565b9050919050565b600060208201905062000be9600083018462000a70565b92915050565b6000819050602082019050919050565b600081519050919050565b6000602082019050919050565b600082825260208201905092915050565b600082825260208201905092915050565b600062000c468262000c4d565b9050919050565b600073ffffffffffffffffffffffffffffffffffffffff82169050919050565b6000819050919050565b600080fd5b7f4f776e61626c653a206e6577206f776e657220697320746865207a65726f206160008201527f6464726573730000000000000000000000000000000000000000000000000000602082015250565b7f4f776e61626c653a2063616c6c6572206973206e6f7420746865206f776e6572600082015250565b7f4c6f636b2066656520746f6f20736d616c6c2100000000000000000000000000600082015250565b62000d288162000c39565b811462000d3457600080fd5b50565b62000d428162000c6d565b811462000d4e57600080fd5b5056fe608060405234801561001057600080fd5b506040516109be3803806109be833981810160405281019061003291906100f3565b826000806101000a81548173ffffffffffffffffffffffffffffffffffffffff021916908373ffffffffffffffffffffffffffffffffffffffff16021790555081600160006101000a81548173ffffffffffffffffffffffffffffffffffffffff021916908373ffffffffffffffffffffffffffffffffffffffff16021790555080600281905550426003819055505050506101b5565b6000815190506100d881610187565b92915050565b6000815190506100ed8161019e565b92915050565b60008060006060848603121561010c5761010b610182565b5b600061011a868287016100c9565b935050602061012b868287016100c9565b925050604061013c868287016100de565b9150509250925092565b600061015182610158565b9050919050565b600073ffffffffffffffffffffffffffffffffffffffff82169050919050565b6000819050919050565b600080fd5b61019081610146565b811461019b57600080fd5b50565b6101a781610178565b81146101b257600080fd5b50565b6107fa806101c46000396000f3fe6080604052600436106100745760003560e01c806349df728c1161004e57806349df728c1461012a57806369ac5721146101535780638da5cb5b1461017e578063cf09e0d0146101a9576100b4565b806302d05d3f146100b9578063370158ea146100e45780633ccfd60b14610113576100b4565b366100b4577f88a5966d370b9919b20f3e2c13ff65706f196a4e32cc2c12bf57088f8852587433346040516100aa9291906106ee565b60405180910390a1005b600080fd5b3480156100c557600080fd5b506100ce6101d4565b6040516100db9190610649565b60405180910390f35b3480156100f057600080fd5b506100f96101f8565b60405161010a95949392919061069b565b60405180910390f35b34801561011f57600080fd5b5061012861025d565b005b34801561013657600080fd5b50610151600480360381019061014c91906105a4565b610348565b005b34801561015f57600080fd5b50610168610533565b6040516101759190610717565b60405180910390f35b34801561018a57600080fd5b50610193610539565b6040516101a09190610649565b60405180910390f35b3480156101b557600080fd5b506101be61055f565b6040516101cb9190610717565b60405180910390f35b60008054906101000a900473ffffffffffffffffffffffffffffffffffffffff1681565b60008060008060008060009054906101000a900473ffffffffffffffffffffffffffffffffffffffff16600160009054906101000a900473ffffffffffffffffffffffffffffffffffffffff1660025460035447945094509450945094509091929394565b600160009054906101000a900473ffffffffffffffffffffffffffffffffffffffff1673ffffffffffffffffffffffffffffffffffffffff163373ffffffffffffffffffffffffffffffffffffffff16146102b757600080fd5b6002544210156102c657600080fd5b3373ffffffffffffffffffffffffffffffffffffffff166108fc479081150290604051600060405180830381858888f1935050505015801561030c573d6000803e3d6000fd5b507fb244b9a17ad633c6e83b7983ee04320484956a68ddbe96a0b70dfca1cf19d723334760405161033e9291906106ee565b60405180910390a1565b600160009054906101000a900473ffffffffffffffffffffffffffffffffffffffff1673ffffffffffffffffffffffffffffffffffffffff163373ffffffffffffffffffffffffffffffffffffffff16146103a257600080fd5b6002544210156103b157600080fd5b600081905060008173ffffffffffffffffffffffffffffffffffffffff166370a08231306040518263ffffffff1660e01b81526004016103f19190610649565b60206040518083038186803b15801561040957600080fd5b505afa15801561041d573d6000803e3d6000fd5b505050506040513d601f19601f8201168201806040525081019061044191906105fe565b90508173ffffffffffffffffffffffffffffffffffffffff1663a9059cbb600160009054906101000a900473ffffffffffffffffffffffffffffffffffffffff16836040518363ffffffff1660e01b81526004016104a09291906106ee565b602060405180830381600087803b1580156104ba57600080fd5b505af11580156104ce573d6000803e3d6000fd5b505050506040513d601f19601f820116820180604052508101906104f291906105d1565b507fa04c965e7d289704527a948915777d68bb4530fb4b08aa935fb958c0b7901ab983338360405161052693929190610664565b60405180910390a1505050565b60025481565b600160009054906101000a900473ffffffffffffffffffffffffffffffffffffffff1681565b60035481565b6000813590506105748161077f565b92915050565b60008151905061058981610796565b92915050565b60008151905061059e816107ad565b92915050565b6000602082840312156105ba576105b961077a565b5b60006105c884828501610565565b91505092915050565b6000602082840312156105e7576105e661077a565b5b60006105f58482850161057a565b91505092915050565b6000602082840312156106145761061361077a565b5b60006106228482850161058f565b91505092915050565b61063481610732565b82525050565b61064381610770565b82525050565b600060208201905061065e600083018461062b565b92915050565b6000606082019050610679600083018661062b565b610686602083018561062b565b610693604083018461063a565b949350505050565b600060a0820190506106b0600083018861062b565b6106bd602083018761062b565b6106ca604083018661063a565b6106d7606083018561063a565b6106e4608083018461063a565b9695505050505050565b6000604082019050610703600083018561062b565b610710602083018461063a565b9392505050565b600060208201905061072c600083018461063a565b92915050565b600061073d82610750565b9050919050565b60008115159050919050565b600073ffffffffffffffffffffffffffffffffffffffff82169050919050565b6000819050919050565b600080fd5b61078881610732565b811461079357600080fd5b50565b61079f81610744565b81146107aa57600080fd5b50565b6107b681610770565b81146107c157600080fd5b5056fea264697066735822122065a78d68aadb5104af8af0ae61c0d33980f5a4a239c186a9fe2c72e218e06a4a64736f6c63430008070033a2646970667358221220573548741e11e28fab7d21f73c36c6e38db6576905083f083196139bd34a4ddf64736f6c63430008070033",
  "immutableReferences": {},
  "source": "pragma solidity ^0.8.0;\n\nimport \"./TimeLockedWallet.sol\";\nimport \"../node_modules/@openzeppelin/contracts/access/Ownable.sol\";\n\ncontract TimeLockedWalletFactory is Ownable {\n    mapping(address => address[]) wallets;\n    uint256 private _bnbFee = 0;\n\n    // Get BNB fee required to create a lock\n    function bnbFee() public view returns (uint256) {\n        return _bnbFee;\n    }\n\n    // Modify BNB fee required to create a lock\n    function setBnbFee(uint256 fee) public onlyOwner {\n        _bnbFee = fee;\n    }\n\n    // Return all timelocked wallets for a specific user\n    function getWallets(address _user) public view returns (address[] memory) {\n        return wallets[_user];\n    }\n\n    function newTimeLockedWallet(address _owner, uint256 _unlockDate)\n        public\n        payable\n        returns (address wallet)\n    {\n\n        require(\n            msg.value >= bnbFee(),\n            \"Lock fee too small!\"\n        );\n\n        // Tranfer the lock fee\n        payable(owner()).transfer(msg.value);\n\n        // Create new wallet.\n        wallet = address(new TimeLockedWallet(msg.sender, _owner, _unlockDate));\n\n        // Add wallet to sender's wallets.\n        wallets[msg.sender].push(wallet);\n\n        // If owner is the same as sender then add wallet to sender's wallets too.\n        if (msg.sender != _owner) {\n            wallets[_owner].push(wallet);\n        }\n\n        // Emit event.\n        emit Created(wallet, msg.sender, _owner, block.timestamp, _unlockDate, msg.value);\n    }\n\n    // Prevents accidental sending of ether to the factory\n    receive() external payable {\n        revert();\n    }\n\n    event Created(\n        address wallet,\n        address from,\n        address to,\n        uint256 createdAt,\n        uint256 unlockDate,\n        uint256 amount\n    );\n}\n",
  "sourcePath": "/home/gm/Documents/work/safulock/contracts/TimeLockedWalletFactory.sol",
  "compiler": {
    "name": "solc",
    "version": "0.8.7+commit.e28d00a7.Emscripten.clang"
  },
  "schemaVersion": "3.4.1",
  "updatedAt": "2021-08-20T21:42:59.874Z",
  "devdoc": {
    "kind": "dev",
    "methods": {
      "owner()": {
        "details": "Returns the address of the current owner."
      },
      "renounceOwnership()": {
        "details": "Leaves the contract without owner. It will not be possible to call `onlyOwner` functions anymore. Can only be called by the current owner. NOTE: Renouncing ownership will leave the contract without an owner, thereby removing any functionality that is only available to the owner."
      },
      "transferOwnership(address)": {
        "details": "Transfers ownership of the contract to a new account (`newOwner`). Can only be called by the current owner."
      }
    },
    "version": 1
  },
  "userdoc": {
    "kind": "user",
    "methods": {},
    "version": 1
  }
}